:020000040800F2
:1000000000200020B51300080114000801140008A6
:1000100000000000000000000000000000000000E0
:1000200000000000000000000000000001140008B3
:100030000000000000000000011400080114000886
:10004000011400080114000801140008011400083C
:10005000011400080114000801140008011400082C
:10006000011400080114000801140008011400081C
:10007000011400080114000801140008011400080C
:100080000114000801140008000000000114000819
:1000900001140008011400080114000801140008EC
:1000A00001140008011400080114000801140008DC
:1000B0000114000800000000011400080000000006
:1000C0005FF808F110B5064C2378002B07D1054BDB
:1000D000002B02D0044800E000BF0123237010BDB4
:1000E0006804002000000000B44C000808B5084B6C
:1000F000002B03D00748084900E000BF0748036809
:10010000002B00D108BD064B002BFBD09847F9E728
:1001100000000000B44C00086C04002060040020C3
:1001200000000000044B5A69002902D010435861B6
:1001300001E082435A61704700100240044BDA69C3
:10014000002902D01043D86101E08243DA61704790
:100150000010024030B585B002900391029D0E4C14
:100160006B10E41A00220D4B02F006FE221C2B1C21
:1001700002F002FE221C2B1C02F0FEFD021C0B1CD6
:100180000020074903F092F8021C0B1C201C291CBC
:1001900002F0F2FD05B030BDDF59375F0000E03FEF
:1001A0000000F83FF0B593B00292039300900191E4
:1001B0001A981B990022002301F020FE002810D07D
:1001C0001C981D990022002301F018FE002808D079
:1001D0001E981F990022002301F010FE002800D075
:1001E0007BE11A981B99021C0B1C02F0C5FD041C34
:1001F0000D1C1C981D99021C0B1C02F0BDFD021C5D
:100200000B1C201C291C01F051FE041C0D1C1E9807
:100210001F99021C0B1C02F0AFFD021C0B1C201CC2
:10022000291C01F043FEFFF795FF041C0D1C1A98D2
:100230001B99221C2B1C02F09FFD221C2B1C0890DA
:1002400009911C981D9902F097FD221C2B1C0A9005
:100250000B911E981F9902F08FFD834C834D0690E1
:10026000079120686168A268E3682E686F68049649
:100270000597266967690C960D9702F07DFD0C9A2B
:100280000D9B061C0F1C0498059902F075FD021CBD
:100290000B1C301C391C03F009F80C900D912868D8
:1002A0006968226863682669676904960597A66885
:1002B000E7680E960F9702F05FFD0E9A0F9B061CE3
:1002C0000F1C0498059902F057FD021C0B1C301CF2
:1002D000391C01F0EBFD0E900F91286869682A68BF
:1002E0006B68A568E66804950596A568E6681095AC
:1002F000119602F041FD00225D4B02F0D7FF109AEB
:10030000119B061C0F1C0498059902F035FD021C78
:100310000B1C301C391C01F0C9FD10901191109A72
:10032000119B0A980B9902F027FD0E9A0F9B061C51
:100330000F1C0698079902F01FFD021C0B1C301CB5
:10034000391C02F0B3FF0C9A0D9B0490059106989E
:10035000079902F011FD109A119B061C0F1C0898BA
:10036000099902F009FD021C0B1C301C391C02F01B
:100370009DFF0E9A0F9B069007910898099902F02D
:10038000FBFC061C0F1C0A980B990C9A0D9B02F0A3
:10039000F3FC021C0B1C301C391C02F087FF0026EA
:1003A000002708900991A069E169321C3B1C01F00B
:1003B0003FFD002860D0A069E169049A059B266A88
:1003C000676A02F0D9FC80222A4BD20502F0D4FCE5
:1003D000021C0B1C301C391C01F068FD069A079B9F
:1003E00020626162A069E16902F0C6FCA66AE76A60
:1003F0008022204BD20502F0BFFC021C0B1C301CDB
:10040000391C01F053FD089A099BA062E162A069C2
:10041000E16902F0B1FC266B676B8022154BD205B7
:1004200002F0AAFC021C0B1C301C391C01F03EFD22
:100430002063616300980199226A636A01F036FDC6
:10044000A26AE36A009001910298039901F02EFDDF
:10045000226B636B029003911898199901F026FDA5
:10046000189019910EE0C04688040020000000207A
:100470000000E03FE17A643F26626762A662E762BD
:1004800026636763049A059BC34CA068E16802F089
:1004900073FC021C0B1C0098019901F007FD069AE1
:1004A000079B00900191A068E16802F065FC021CC6
:1004B0000B1C0298039901F0F9FC089A099B029021
:1004C0000391A068E16802F057FC021C0B1C18980D
:1004D000199901F0EBFC189019910098019980226C
:1004E000AE4BD20502F048FC8022049005910298A0
:1004F0000399D205A94B02F03FFC802202900391A0
:1005000018981999D205A54B02F036FCA24D069019
:1005100007912B686C6808930994A14C2268636862
:1005200000920193226963690A920B93A268E368BF
:100530000C920D932A686B680E920F938022009B99
:100540001206181C019B9918049A059B02F014FCD2
:10055000029A039B061C0F1C0A980B9902F00CFCD4
:10056000021C0B1C301C391C02F0A0FE069A079BD3
:10057000061C0F1C0C980D9902F0FEFB021C0B1CB4
:10058000301C391C02F092FE021C0B1C0E980F99B5
:1005900001F08CFC2860696008980999A268E368FA
:1005A0000C920D93226863680E920F93049A059B38
:1005B00002F0E2FB069A079B061C0F1C0A980B9997
:1005C00002F0DAFB021C0B1C301C391C01F06EFC23
:1005D000029A039B061C0F1C0C980D9902F0CCFB91
:1005E000021C0B1C301C391C02F060FE021C0B1C90
:1005F0000E980F9901F05AFC2060616008980999E3
:10060000A268E3680C920D93226963690E920F93BE
:10061000029A039B02F0B0FB069A079B061C0F1C74
:100620000098019902F0A8FB021C0B1C301C391C1D
:1006300002F03CFE049A059B061C0F1C0C980D99B9
:1006400002F09AFB021C0B1C301C391C01F02EFC22
:10065000021C0B1C0E980F9901F028FC20616161AF
:1006600008980999A268E3680C920D93069A079B73
:1006700002F082FB029A039B061C0F1C0098019952
:1006800002F07AFB021C0B1C301C391C01F00EFC22
:10069000049A059B061C0F1C0A980B9902F06CFB30
:1006A000021C0B1C301C391C02F000FE021C0B1C2F
:1006B0000C980D9901F0FAFBA060E1602868696868
:1006C0002A686B68266867680096019726686768DD
:1006D00002960397266967690496059726696769F4
:1006E00006960797A668E76808960997A668E768D8
:1006F0000A960B9702F040FB029A039B061C0F1C04
:100700000098019902F038FB021C0B1C301C391CAC
:1007100001F0CCFB069A079B061C0F1C0498059958
:1007200002F02AFB021C0B1C301C391C01F0BEFB22
:100730000A9A0B9B061C0F1C0898099902F01CFBD7
:10074000021C0B1C301C391C01F0B0FBFFF702FD32
:10075000061C0F1C28686968321C3B1C02F00CFB4D
:1007600028606960321C206861683B1C02F004FB51
:1007700020606160321C206961693B1C02F0FCFA58
:1007800020616161321CA068E1683B1C02F0F4FA50
:10079000A060E16013B0F0BD00000020E17A543F9A
:1007A00088040020F0B5B9B00A920B930890099123
:1007B000469847990022002301F020FB002827D00B
:1007C000489849990022002301F018FB00281FD007
:1007D0004A984B990022002301F010FB002817D003
:1007E0003E9B3F9C0898099900930194409B419C33
:1007F00002930394429B439C04930594449B459C21
:10080000069307940A9A0B9BFFF7CCFC00F0ACFC14
:10081000409841990022002301F0F0FA002810D0FE
:10082000429843990022002301F0E8FA002808D0FA
:10083000449845990022002301F0E0FA002800D0F6
:1008400035E340984199021C0B1C02F095FA041CF8
:100850000D1C42984399021C0B1C02F08DFA021CDD
:100860000B1C201C291C01F021FB041C0D1C4498AE
:100870004599021C0B1C02F07FFA021C0B1C201C69
:10088000291C01F013FBFFF765FC041C0D1C4098AC
:100890004199221C2B1C02F06FFA221C2B1C1C906D
:1008A0001D914298439902F067FA221C2B1C1E905E
:1008B0001F914498459902F05FFA20902191469843
:1008C0004799021C0B1C02F057FA041C0D1C489897
:1008D0004999021C0B1C02F04FFA021C0B1C201C35
:1008E000291C01F0E3FA041C0D1C4A984B99021CC8
:1008F0000B1C02F041FA021C0B1C201C291C01F0ED
:10090000D5FAFFF727FC041C0D1C46984799221CBA
:100910002B1C02F031FA221C2B1C0C900D914898D4
:10092000499902F029FA221C2B1C0E900F914A982B
:100930004B9902F021FAD64C10901191226863680D
:10094000329233932268636820686168D14E349292
:1009500035933268736802F00FFA1490159120688D
:1009600061683269736902F007FA12901391206886
:100970006168B268F36802F0FFF933687468169032
:100980001791309331943368746830687168369386
:1009900037943269736902F0EFF91A901B9130684D
:1009A0007168B268F36802F0E7F922902391306928
:1009B00071693269736902F0DFF924902591306919
:1009C0007169B268F36802F0D7F926902791B06890
:1009D000F168B268F36802F0CFF9249A259B189069
:1009E00019910020AC4902F061FC189A199B02F0A1
:1009F0005DFC289029911A981B99169A179B02F072
:100A000055FC129A139B2A902B912298239901F05E
:100A10004DFA289A299B2C902D910C980D9902F053
:100A2000ABF92A9A2B9B041C0D1C0E980F9902F00F
:100A3000A3F9021C0B1C201C291C01F037FA2C9A6C
:100A40002D9B041C0D1C1098119902F095F9021CA5
:100A50000B1C201C291C01F029FA021C0B1C01F0A4
:100A600025FA369A379B2E902F913098319902F0C3
:100A700083F9021C0B1C0020874902F017FC169A10
:100A8000179B309031911A981B9901F00FFA021CB4
:100A90000B1C0C980D9902F06FF9189A199B041C05
:100AA0000D1C3098319902F001FC021C0B1C0E98B1
:100AB0000F9902F061F9021C0B1C201C291C01F08B
:100AC000F5F9041C0D1C26982799149A159B02F021
:100AD000EDFB021C0B1C1098119902F04DF9021C41
:100AE0000B1C201C291C01F0E1F9021C0B1C01F05D
:100AF000DDF9041C0D1C2E982F99021C0B1C02F012
:100B00003BF9221C169017912B1C201C291C02F06B
:100B100033F9021C0B1C1698179901F0C7F900F065
:100B200049FF129A139B169017912298239902F06D
:100B3000BDFB149A159B129013912698279901F0EA
:100B4000B5F9249A259B149015913098319902F0AB
:100B5000ADFB129A139B229023910C980D9902F0F1
:100B60000BF9149A159B041C0D1C0E980F9902F09A
:100B700003F9021C0B1C201C291C01F097F9229A76
:100B8000239B041C0D1C1098119902F0F5F8021C0F
:100B90000B1C201C291C01F089F9021C0B1C01F004
:100BA00085F9349A359B1A901B913298339902F04B
:100BB000E3F80022384B02F079FB189A199B01F0F8
:100BC00075F9289A299B189019911698179902F08F
:100BD000D3F8129A139B041C0D1C1A981B9902F04F
:100BE000CBF8021C0B1C201C291C01F05FF92A9A6F
:100BF0002B9B249025911698179902F0BDF8149A12
:100C0000159B041C0D1C1A981B9902F0B5F8021CC8
:100C10000B1C201C291C01F049F92C9A2D9B2690B5
:100C200027911698179902F0A7F8229A239B041C83
:100C30000D1C1A981B9902F09FF8021C0B1C201C1B
:100C4000291C01F033F9189A199B1A901B911E98D0
:100C50001F9902F091F8149A159B041C0D1C209802
:100C6000219902F089F8021C0B1C201C291C02F09F
:100C70001DFB1A9A1B9B169017910E980F9902F064
:100C80007BF8269A279B041C0D1C1098119905E0EF
:100C900000000020880400200000E03F02F06CF813
:100CA000021C0B1C201C291C02F000FB021C0B1C4C
:100CB0001698179901F0FAF8169017912098219933
:100CC000129A139B02F058F8189A199B041C0D1CD9
:100CD0001C981D9902F050F8021C0B1C201C291CAA
:100CE00002F0E4FA249A259B189019911098119912
:100CF00002F042F81A9A1B9B041C0D1C0C980D99CB
:100D000002F03AF8021C0B1C201C291C02F0CEFA3F
:100D1000021C0B1C1898199901F0C8F8149A159B1D
:100D2000109011911C981D9902F026F8129A139BAD
:100D3000041C0D1C1E981F9902F01EF8021C0B1CAF
:100D4000201C291C02F0B2FA269A279B12901391BC
:100D50000C980D9902F010F8249A259B041C0D1C88
:100D60000E980F9902F008F8021C0B1C201C291C7D
:100D700002F09CFA021C0B1C1298139901F096F8D1
:100D8000002400250C900D91B069F169221C2B1CE8
:100D900001F04EF8002859D0B069F169169A179BF6
:100DA000346A756A01F0E8FF8022274BD20501F012
:100DB000E3FF021C0B1C201C291C01F077F8109A81
:100DC000119B30627162B069F16901F0D5FFB46ABC
:100DD000F56A80221C4BD20501F0CEFF021C0B1CD1
:100DE000201C291C01F062F80C9A0D9BB062F16284
:100DF000B069F16901F0C0FF346B756B8022124B52
:100E0000D20501F0B9FF021C0B1C201C291C01F0AB
:100E10004DF83063716308980999326A736A01F07A
:100E200045F8B26AF36A089009910A980B9901F0A3
:100E30003DF8326B736B0A900B913E983F9901F02D
:100E400035F83E903F9107E0E17A643F3462756285
:100E5000B462F56234637563169A179BC34CA0683D
:100E6000E16801F089FF021C0B1C0898099901F048
:100E70001DF8109A119B08900991A068E16801F093
:100E80007BFF021C0B1C0A980B9901F00FF80C9ABF
:100E90000D9B0A900B91A068E16801F06DFF021CA8
:100EA0000B1C3E983F9901F001F83E903F91089845
:100EB00009998022AE4BD20501F05EFF80220C9092
:100EC0000D910A980B99D205A94B01F055FF80228C
:100ED0000A900B913E983F99D205A54B01F04CFF2B
:100EE000A24D0E900F912B686C6810931194A14C39
:100EF00022686368089209932269636912921393C6
:100F0000A268E368149215932A686B681692179387
:100F10008022089B1206181C099B99180C9A0D9B9D
:100F200001F02AFF0A9A0B9B061C0F1C12981399BA
:100F300001F022FF021C0B1C301C391C02F0B6F918
:100F40000E9A0F9B061C0F1C1498159901F014FFA4
:100F5000021C0B1C301C391C02F0A8F9021C0B1CD3
:100F60001698179900F0A2FF2860696010981199EF
:100F7000A268E36814921593226863681692179327
:100F80000C9A0D9B01F0F8FE0E9A0F9B061C0F1C8D
:100F90001298139901F0F0FE021C0B1C301C391C36
:100FA00000F084FF0A9A0B9B061C0F1C14981599DD
:100FB00001F0E2FE021C0B1C301C391C02F076F919
:100FC000021C0B1C1698179900F070FF20606160DE
:100FD00010981199A268E3681492159322696369C5
:100FE000169217930A9A0B9B01F0C6FE0E9A0F9B5E
:100FF000061C0F1C0898099901F0BEFE021C0B1C70
:10100000301C391C02F052F90C9A0D9B061C0F1C67
:101010001498159901F0B0FE021C0B1C301C391CF1
:1010200000F044FF021C0B1C1698179900F03EFFBD
:101030002061616110981199A268E3681492159378
:101040000E9A0F9B01F098FE0A9A0B9B061C0F1C30
:101050000898099901F090FE021C0B1C301C391CE9
:1010600000F024FF0C9A0D9B061C0F1C129813997C
:1010700001F082FE021C0B1C301C391C02F016F918
:10108000021C0B1C1498159900F010FFA060E16081
:10109000286869682A686B682668676808960997EF
:1010A000266867680A960B97266967690C960D97FC
:1010B000266967690E960F97A668E76810961197DC
:1010C000A668E7681296139701F056FE0A9A0B9BE2
:1010D000061C0F1C0898099901F04EFE021C0B1CFF
:1010E000301C391C00F0E2FE0E9A0F9B061C0F1CF0
:1010F0000C980D9901F040FE021C0B1C301C391C91
:1011000000F0D4FE129A139B061C0F1C1098119924
:1011100001F032FE021C0B1C301C391C00F0C6FE14
:10112000FFF718F8061C0F1C28686968321C3B1C66
:1011300001F022FE28606960321C206861683B1C57
:1011400001F01AFE20606160321C206961693B1C5D
:1011500001F012FE20616161321CA068E1683B1C55
:1011600001F00AFEA060E16039B0F0BD000000208F
:10117000E17A543F88040020094B10B59C68094B64
:10118000012218685968002380185941FA22002367
:10119000920000F061FE221C0023801A994110BDCC
:1011A00010E000E0C0040020802070B5C0028AB0CA
:1011B0000121FEF7B7FF8020174EC0030121FEF783
:1011C000BDFF301C0A21012200F090FA0122301CE0
:1011D0000B2100F08BFAC0231B0100240125019391
:1011E000022301A9301C4C710B71CD718D7100F07F
:1011F00041FA049405940794069408940994074CC2
:10120000074B201C03A9039300F0FCF8201C291CA9
:1012100000F02AF90AB070BD0004004800580040F0
:101220000D0A31207FB500246B467F2503266946D1
:1012300025485E711C71DC71009500F01BFA211CC1
:10124000022000F0A1FB0220012100F09DFB022002
:10125000011C00F099FB311C022000F095FB0220DC
:10126000042100F091FB0220052100F08DFB0621F6
:10127000022000F089FB102302A843710F3B029566
:101280000471837100F046FAC121104B890058584F
:101290000F4A02408020C00102435A5020221A60A7
:1012A00058580C4A02408020C00302435A50402242
:1012B00080201A605A58C0051202120A02435A507E
:1012C00080221A607FBDC0460008004800E100E0AF
:1012D000FF00FFFFFFFF00FFF0B59BB000F098F9A3
:1012E00000F014F9C0202F4A2F4B304953600B6A8D
:1012F00000061B021B0A03430B62002393600733A3
:101300001360FFF78FFFFFF74FFF0EA800F064FA9E
:1013100012A800F009FB16A800F0D6FA8022244B90
:1013200092009A61FFF728FF0EA800F0B5FA12A804
:1013300000F012FB16A800F0DFFA0F9802F030FB65
:10134000041C10980D1C02F02BFB061C11980F1C9E
:1013500002F026FB00900191139802F021FB02900D
:101360000391149802F01CFB04900591159802F06B
:1013700017FB06900791179802F012FB089009914D
:10138000189802F00DFB0A900B91199802F008FBD7
:10139000321C0C900D913B1C201C291CFFF702FAFB
:1013A000C2E7C04610E000E07FBB000000ED00E0B7
:1013B000000800480C488546002103E00B4B5B58B1
:1013C000435004310A480B4B42189A42F6D30A4A5A
:1013D00002E0002313600432084B9A42F9D300F074
:1013E00017F9FFF779FFFEE700200020DC4D000829
:1013F000000000206404002068040020CC040020C9
:10140000FEE7000010B501240368A34303600268EF
:10141000124B13408A68120213434A681343036055
:101420000F4A0B681A40026103688A69234303600C
:1014300000238360C3600B69134380228360836849
:101440001202134383600368CA681343036042684F
:10145000044B13404A691343436010BDFFE0CF00C3
:10146000FFFFFFF0FF7FFF0701220368002901D083
:10147000134300E09343036070470000002904D049
:10148000802243689201134302E04268014B1340FB
:1014900043607047FFDFFFFF002904D080224368CC
:1014A000D201134302E04268014B1340436070478E
:1014B000FFBFFFFF002903D04268044B134003E045
:1014C000802243681202134343607047FF7FFFFF8F
:1014D00030B54468054D89052C40039D890D2C438A
:1014E00023430B4312041343436030BD009800FCB8
:1014F00081627047406AC0B2704780690840411EEF
:101500008841C0B27047C161704700000C2370B5BC
:10151000124D134E6A681340042B01D0082B02D0E1
:10152000104B336011E06C686B68A402240F023426
:10153000DB0301D40C4806E00F23E96A094819408F
:10154000013100F0B9FB444334606B68074A1B0665
:101550001B0FD35C3268DA40326070BD001002406D
:101560002000002000127A0000093D001000002039
:101570000023802182B000930193224B49021A6814
:101580000A431A6080221968920211400191009961
:10159000013100910199002904D1A0210098C901CD
:1015A0008842EFD119680A4000D001220192019AC5
:1015B000012A25D11121144A11605A685A605A68CB
:1015C0005A605968114A0A4088215A605A6849038A
:1015D0000A4380215A601A6849040A431A6019684C
:1015E000084A8901FBD50320516881435160516845
:1015F0000138014351600C2259680A40082AFAD187
:1016000002B070470010024000200240FFFFC0FF00
:10161000012108B5114B1A680A431A605868104A2C
:1016200002405A6018680F4A02401A6018680E4A51
:1016300002401A6058680D4A02400F205A60DA6A68
:101640008243DA62186B0A4A02401A635A6B8A4371
:101650005A6300229A60FFF78BFF08BD001002401A
:101660000CB8FFF8FFFFF6FEFFFFFBFFFFFFC0FF18
:10167000ACFEFFFFF7B500220B68019301239340F6
:10168000019E1E409E422DD10C79631E012B16D85F
:101690005700BC4603276546AF408368BB43836061
:1016A0004B798768AB403B4383608388B343838037
:1016B0008E798788331C93403B439BB283800323FE
:1016C0005600B340DB43B44007681F40076007681B
:1016D0003C430460C4682340C360CB79C468B34012
:1016E0002343C3600132102AC8D1F7BD072310B5C8
:1016F0000F240B409B009A409C40131CC908890092
:101700004018016AA1430162016A0B43036210BDE4
:10171000FEE70000837910B50168002B23D0CA438F
:10172000144B1C6814401C605C6822405A600279AB
:10173000D21814682143116002689C68D1430C40A0
:101740009C60DC682140D9604179102906D19968F4
:1017500011439960D9680A43DA600AE0054BCB1857
:1017600019680A4304E0034A03799B181A688A43FC
:101770001A6010BD0004014070B50E1C151C1C1C25
:10178000802113480902FFF7B8FE0028F8D110485D
:101790000121FFF773FE0F48311CFFF7A9FE0D482A
:1017A000291CFFF7A5FE0A484021FFF7A6FE0028E6
:1017B000F9D00748211CFFF79BFE05484021FFF7A1
:1017C0009CFE0028F9D002480121FFF765FE70BD9C
:1017D000005800400054004038B5D0210023041CBC
:1017E000084D0170C360836043601622281CFFF718
:1017F000C3FF281C217815221323FFF7BDFF201CEF
:1018000038BDC046C804002037B50C1C151C80210B
:1018100020480902FFF771FE031EF8D18022A4B20E
:10182000920100921B48211C0122FFF751FE19482A
:101830000221FFF762FE0028F9D01648291CFFF7A5
:1018400057FE14484021FFF758FE0028F9D0902396
:101850009B01009380230F48211C01229B04FFF76A
:1018600037FE0C480121FFF725FE0A480421FFF747
:1018700044FE0028F9D00748FFF73CFE041C002175
:101880000448FFF717FE240202482021FFF73BFE21
:10189000A0B23EBD0058004038B50A4D041C017886
:1018A0001D22281CFFF7B0FF217860601F22281C32
:1018B000FFF7AAFF2178A0602122281CFFF7A4FFD0
:1018C000E06038BDC804002038B5D0210023041CD6
:1018D000084D0170C360836043601622281CFFF727
:1018E0004BFF281C217815221323FFF745FF201CEE
:1018F00038BDC046C804002038B50A4D041C017824
:101900001D22281CFFF780FF217860601F22281C01
:10191000FFF77AFF2178A0602122281CFFF774FFCF
:10192000E06038BDC804002038B5D0210023041C75
:10193000084D0170C360836043601622281CFFF7C6
:101940001BFF281C217815221323FFF715FF201CED
:1019500038BDC046C804002038B50A4D041C0178C3
:101960001D22281CFFF750FF217860601F22281CD1
:10197000FFF74AFF2178A0602122281CFFF744FFCF
:10198000E06038BDC8040020032310B50F240B40CD
:101990009B0098409C40031C054A890889008918CF
:1019A0008A68A2438A608A6813438B6010BDC04670
:1019B00000000140F0B5474680B48CB0041C0D1CFB
:1019C00000F054F8274B061C98461B780F1C5BB29E
:1019D00001330DD0201C291C00F03EF9002807D04F
:1019E000201C291C0022002300F00EFA002805D13B
:1019F000301C391C0CB004BC9046F0BD012302938E
:101A0000194B06940795039300230A9343460494C5
:101A100005951C78002C0FD100230024089309940D
:101A200002A800F047F9002810D00A9B0193002B70
:101A300011D1089E099FDBE700200021021C0B1C2E
:101A400000F05CFD08900991022CE9D102F0B4FF8E
:101A500021230360E9E702F0AFFF0A9B01930360D3
:101A6000E7E7C04624000020884B0008F0B5564642
:101A70004D4644465F46754BF0B40A1C0E1C191CBB
:101A800083B0051C041C3140994200D1B7E0002E00
:101A900000DC93E0311500D1A0E06D4B1203CE18AD
:101AA0008023120B5B031A43F30700D577E0731012
:101AB00052009846E30FD3188022162100270025F4
:101AC00064009203A818984202DC85181B1ABF18FC
:101AD000E00F5B0001391B18640052080029F1D1A6
:101AE000002201929446802212062020924609E0AC
:101AF000AB4247D0E10F5B0001385B18640052082D
:101B000000281ED0614689189D42F1DA8E18B4462D
:101B1000CE0FF607A94656452ED05B1B8C42AD4131
:101B20006D425B1B641A01995B008B4693445946D6
:101B300001380191E10F4D465B18640052080028FE
:101B4000E0D1234330D1019B5B0842497A108C4697
:101B50006244F90702D5802109060B4341460E0570
:101B6000B1181D1C0E1C281C311C03B03CBC904637
:101B70009946A246AB46F0BD6646002ECDDB6E1CF4
:101B8000B146CAE7A14208D88E18B446CE0FF60770
:101B9000564541D099460023C4E71D1CAAE7E30F30
:101BA0005200D218640082E7019B01333AD0019AB7
:101BB00001239446134063445B08C6E773005B0847
:101BC0000343D0D00021002E33D1E20A1539640539
:101BD000002AFAD080235B031A4226D180200023FA
:101BE0004003520001330242FBD001252020ED1AB0
:101BF000C01A4919251CC5409C402A434DE72A1CA0
:101C0000331C281C311C01F0B7F82A1C331C00F0CF
:101C10004DF9051C0E1CA6E76646002EAFDA002320
:101C2000A9467FE7013700238FE720200125002305
:101C3000DFE72A1C331C281C311C01F037FB021C77
:101C40000B1C00F05BFC051C0E1C8CE70000F07FF9
:101C500001FCFFFF0000E03F0A1C031C024330B5FB
:101C60000220002A00D130BD80221206914216D0F7
:101C70000C4A04208C180C4A9442F4D90B4C0C19D1
:101C80009442F0D90A4A4900490803209142EAD90E
:101C9000064A00209142E6D158425841E3E7002B22
:101CA000E1D0EFE70000F0FFFFFFDF7F0000F07FF3
:101CB000FFFF0F0000207047002243088B4274D3BF
:101CC00003098B425FD3030A8B4244D3030B8B423D
:101CD00028D3030C8B420DD3FF22090212BA030C46
:101CE0008B4202D31212090265D0030B8B4219D327
:101CF00000E0090AC30B8B4201D3CB03C01A524147
:101D0000830B8B4201D38B03C01A5241430B8B428E
:101D100001D34B03C01A5241030B8B4201D30B0377
:101D2000C01A5241C30A8B4201D3CB02C01A52419E
:101D3000830A8B4201D38B02C01A5241430A8B4261
:101D400001D34B02C01A5241030A8B4201D30B024A
:101D5000C01A5241CDD2C3098B4201D3CB01C01A64
:101D6000524183098B4201D38B01C01A524143096E
:101D70008B4201D34B01C01A524103098B4201D35C
:101D80000B01C01A5241C3088B4201D3CB00C01AC9
:101D9000524183088B4201D38B00C01A5241430841
:101DA0008B4201D34B00C01A5241411A00D2014666
:101DB000524110467047FFE701B5002000F00CF8D3
:101DC00002BDC0460029F7D003B5FFF775FF0EBC72
:101DD0004243891A1847C0467047C0468446101CC3
:101DE00062468C46191C634600E0C0461FB500F0F1
:101DF0005DFF002801D40021C8421FBD10B500F0CE
:101E0000A1FE4042013010BD10B500F04FFF002888
:101E100001DB002010BD012010BDC04610B500F050
:101E200045FF002801DD002010BD012010BDC04687
:101E300010B500F0CBFE002801DC002010BD012011
:101E400010BDC04610B500F0C1FE002801DA002028
:101E500010BD012010BDC046F0B54F4646460504F2
:101E60002D0C2C1CC0B41704160C3F0C9946030C07
:101E70007C4375435F4373437D19260CAD199C4623
:101E8000AF4203D980235B029846C4444B4651437A
:101E9000434324042E0C240C2D0466442C19591899
:101EA0008919201C0CBC90469946F0BDF0B54546FA
:101EB00057464E4694464C000A03C90FE0B4884684
:101EC0000E1C1903470FC500480A6146490F01431C
:101ED0006046520A1743C0005A00640D520DDB0FD2
:101EE0008446984500D1A7E0A01A002800DC01E153
:101EF000002A3DD163460B4300D0D4E06B0700D1EC
:101F000088E00F232B40042B00D183E02A1DAA4236
:101F1000AD4180236D427F191B043B404646151C92
:101F2000002B00D17CE0CC4B01349C4200D1FDE081
:101F30003A1CCA4BED081A4050076405520205438B
:101F4000120B640D002112030B0D1B056405120B0F
:101F50001A436308C24CF60714401C43640064082B
:101F60003443281C211C1CBC90469946A246F0BD57
:101F7000B94B9C42C2D080231B041943382800DD92
:101F8000ECE01F2800DD21E120220E1C6346121A1E
:101F90009640C340334366469640321C561EB241BB
:101FA00013430A1CC240EB1A9D42B6411D1CBA1ACB
:101FB0007642971B3B0200D497E07A02560A002E25
:101FC00000D1B6E0301C02F0D9FC031C083B1F2BEB
:101FD00000DDB7E09E40371C28262A1C361AF24046
:101FE000161C9D403E439C4200DDB2E01C1B621C5F
:101FF0001F2A00DDD8E01F23291C1C1B331CA54011
:10200000A340D1406C1EA541D64019430D43371C57
:10201000002473E780231B043B40464600D082E740
:102020008D4BED0878070543FA089C4232D0120325
:102030006405120B640D85E7A31A002B00DC94E005
:10204000002A3CD0844A944200D157E780221204EF
:102050001143382B00DC05E163461943481E8141DA
:102060000022C8B24019A8429B41051CD2195B420C
:10207000D7183B0239D5784B01349C4200D14CE152
:102080000120764A6B083A4028401843D50705439B
:10209000570833E72B1C134348D080231B031A43F4
:1020A0001203120B4EE70138002878D16346EE1A6E
:1020B000B5429B417A1A5B42D71A351C7AE7021C5B
:1020C0000A4300D11AE7013B002B00D0F2E040198F
:1020D000A8429B41CA195B42D718051CC9E7131CCB
:1020E000334300D118E1171C351C46466B0700D05E
:1020F00007E795E700287AD1621C5205520D012AA4
:1021000000DCFBE06246AA1A9542B6419146781A75
:102110007242861A320200D493E06246551BAC45E7
:102120008041CF1B40423E1A984648E700220025D6
:1021300008E7281C02F022FC2030031C083B1F2B60
:1021400000DC47E7283885402E1C00259C4200DC37
:102150004CE7424AE41A1640371CCFE6634619435F
:102160004B1E99410022CBB21DE7002B00D0F2E0BC
:10217000601C43055B0D012B00DCA4E0364B98424C
:1021800000D121E163465C19AC429B41CF195B420F
:10219000FA186408D50725435708041CAEE62E4BF1
:1021A0009C4200D0EAE6A9E6211C331C1F39CB4033
:1021B000191C202A00D182E03F231C1BA640354376
:1021C0006E1EB54100270D4300248EE7031C0E1C34
:1021D000203BDE40202874D040231B1A99400B1C62
:1021E00062461343591E8B4100223343DBE6002C29
:1021F00050D0194CA24200D1A8E0802424044042CF
:102200002743382800DDD9E01F2800DD39E12024EC
:102210003E1C241AA640B0462E1CA146C640444689
:1022200026434C46A5406C1EA541C7403543604639
:10223000451BCF1BAC45894149427F1A141C984667
:10224000B8E64B464D46334300D0B8E6002600279B
:1022500000240025E4E6C046FF070000FFFF7FFFE3
:10226000FFFF0F801F2B5BDC2022081CD21A90403E
:10227000814660469246D8404A46104381465246BF
:1022800060469040021C501E8241484610430A1C82
:10229000DA40E7E63C1C2C4358D0C043002851D11B
:1022A0006046451BAC458041CF1B40423F1A141C81
:1022B00098467FE68F4A944200D0CAE61EE6002682
:1022C0007DE700238CE73B1C2B43002C00D0BDE0B6
:1022D000002B00D1F5E063460B4300D10EE66346C8
:1022E0005B19AB428041CA19404217183A0200D428
:1022F000FCE0814A1D1C17400134FFE53A1C2A43CB
:10230000002C51D1002A00D085E062460A4303D058
:102310000F1C65469846F1E50026002700257FE65C
:10232000181C0A1C2038C240202B00D1A7E04020F6
:10233000C01A8140081C63461843411E884110435F
:1023400000228FE66B4CA24200D05AE70F1C654674
:10235000141C9846D2E5002C3AD1381C284371D081
:10236000DB43002B18D0634882426BD0382B00DD52
:102370009DE01F2B00DDA7E020203C1CC01A8440FC
:10238000A1462C1C8246DC4048460443504685400A
:10239000681E8541DF402543654465459B417F18A4
:1023A0005B42FF18141C64E6002A19D162460A43F6
:1023B00077D00F1C654698464E4C9FE53D436F1EF7
:1023C000BD410027EDB232E7041C0027002527E6B7
:1023D0004848824236D0802000045B420743C5E76C
:1023E00062460A4349D08024ED087807FA0824039E
:1023F0002843224209D0CE08264206D162464F0722
:10240000381CD20810439846321CD200470F17439D
:10241000C500384C72E562460A4300D16EE562465B
:10242000AE1AB5429241781A5242821A100200D472
:1024300055E66246551BAC458041CA1B4042171AFF
:1024400098465BE50F1C6546141C57E5002B34D0FD
:1024500063460B4311D08024ED087807FA08240363
:1024600028432242D1D0CB082342CED162464F0727
:10247000381CD20810431A1CC7E71E4C3EE500204A
:1024800059E7041C3E1C203CE640341C20282BD07D
:102490004026301A87403D436F1EBD41002725432B
:1024A000C5E680270026FF03124C0025B8E53D4312
:1024B0006F1EBD410027EDB26EE70F1C65460D4C47
:1024C0001CE50F1C654619E51C1C381C203CE0402F
:1024D000041C202B0CD04020C31A9F403D436F1E8C
:1024E000BD410027254357E70027D4E71D1CFCE525
:1024F0000027F3E7FF070000FFFF7FFFF0B55F460F
:1025000056464D464446F0B40F0387B098464D00FA
:102510003B0BCC0F061C924681469B466D0D0194E9
:102520006BD0664B9D4235D080275B467F031F43AF
:10253000F3009946624BFF00400F9C46074300237F
:10254000BB46002665440093424617035000D20F55
:1025500053463F0B400D904600D172E0574A9042DF
:1025600067D080235B031F435346554A5B0FFF0030
:102570001F43944653460021DB00604442466240BC
:1025800092462D1A0E430F2E00D9A1E04D48B600F9
:10259000805987465B461E4300D076E000239B4669
:1025A0009946023308260093CEE799464346BB4638
:1025B00001930091009B022B6BD1019B9A46002155
:1025C00053460122002789461A403C4B00213F0315
:1025D0000C0D24053F0B27433B4C1B0527401F4395
:1025E0007F00D2077F0817434846391C07B03CBC20
:1025F00090469946A246AB46F0BD03433ED05B46AB
:10260000002B00D19CE1584602F0B8F92823311C78
:102610001B1A021C5F46D940083A97400B1C964093
:102620003B439B46B1460023284D00262D1A0093BC
:102630008AE7524603213A43A0D100270023022112
:102640009CE752463A4315D0002F00D185E1381C53
:1026500002F094F9021C28215046891A131CC84024
:102660005146083B99409F400B1C074317480021E7
:10267000801A83E70027002301217FE700239B4680
:1026800099460133042600935EE703230C2600934A
:102690005AE7032B00D13CE2012B00D0BFE11A1C0A
:1026A000019B1A4000210023002789468EE7002362
:1026B0008027994600223F03004B87E7FF07000071
:1026C00001FCFFFF904B0008FFFF0F800DFCFFFF98
:1026D000BB4500D951E100D14CE14A4603920022AA
:1026E0005C469046013D180E3F0238431B020193A1
:1026F000030C994603041B0C4946061C201C1F1C96
:102700000093FFF7D9FA021C7A4302904946201C35
:10271000171CFFF757FB039B09041B0C19438F423F
:102720000CD9029B8919013B8E4200D952E18F429C
:1027300000D84FE1029B8919023B0293CC1B201C5D
:102740004946FFF7B9FA009F834647434946201C94
:10275000FFF738FB039A0B041404240C23439F4215
:102760000DD95A469B19013A9E4200D930E19F4249
:1027700000D82DE10222524294469B19E344029A6A
:10278000DB1B17045A463A439346019C170C220C54
:10279000101C04925A4611042204120C141C090C39
:1027A0007C4305924A43414347436118100C091882
:1027B0008C4203D980204002844667440C0C1204EA
:1027C0000804120C3C198118A34200D2E5E000D1A4
:1027D000DFE01F1B43465C1AA04592415242BF1ADC
:1027E000B74200D10EE1381C4946FFF765FA009B5D
:1027F000029043434946381C9846FFF7E3FA230CFE
:102800000F041F43B8450CD9029BBF19013BBE42C0
:1028100000D9FBE0B84500D8F8E0029BBF19023BA5
:1028200002934346FF1A4946381CFFF745FA009BBE
:10283000039043434946381C9846FFF7C3FA2404E3
:102840000904240C214388450CD9039B8919013BB9
:102850008E4200D9DCE0884500D8D9E0039B891975
:10286000023B03934346C91A029B039A1B04059C2F
:102870001A43100C13049146221C049F1B0C5A434C
:1028800044437B437843E318170CDB199C4203D97C
:1028900080246402A44660441C0C12041B04120C25
:1028A00000199B18814200D296E000D1FCE04A4614
:1028B00001231A4391469B4BEB18002B00DC99E057
:1028C0004A4652070AD00F2249460A40042A05D038
:1028D0000431494592418946524293445A46D201B5
:1028E00006D55A46904B1A4080239346DB00EB18DE
:1028F0008E4A934200DD62E64A465946D2084907AD
:1029000011435A4689465702514601225B053F0B47
:102910005B0D0A405AE680205A460003024208D066
:10292000074206D107433F0399463F0B4246804B7F
:102930004CE65F4607433F033F0B221C7C4B45E6BA
:1029400002F01CF8031C2030272800DC5EE6083B60
:102950009E400023B346994665E6504602F00EF8C5
:10296000021C2032272A00DC75E6574608388740CB
:1029700000237BE6994500D2AFE65A4659465408F3
:102980004A46C8075208024303924A46D207904675
:10299000A9E60027884500D31CE7019F5A46BC469C
:1029A000E044B845BF417F42BF19FF18013ABE421B
:1029B00006D2BC425FD800D19FE03F1B934609E797
:1029C000B742FAD1019B4345F3D9371B934601E740
:1029D0009346D4E60293B1E64A468919013A8E42FB
:1029E00018D99146814200D061E7019A9A4200D0FD
:1029F0005DE760E74F4F7F1B382F13DD0122534601
:102A00001A404FE601235B42994654E7029308E7D8
:102A1000039327E788423CD874D0914647E7019B4F
:102A20009A4648E71F2F44DC434B4A469C465B4688
:102A30006544FA40AB4013434A46AA40151C6A1E3F
:102A400095415A46FA402B43171C5A0709D00F22CA
:102A50001A40042A05D01A1D9A429B415B42FF1876
:102A6000131C3A023ED55346012200211A4000278A
:102A700001238946AAE502235B429C46019AE3446E
:102A80009446E04490459B415B429B19DF193F1BF4
:102A9000A0E6019F4A467C00BC42BF417F42BF196D
:102AA000023AC91901949CE7002B95D100220192AA
:102AB0009BE75A46214B5B1BDA40202F27D0204B47
:102AC0009C465B466544AB4049460B43591E8B41CF
:102AD0001343072200271A4007D00F2200271A406D
:102AE000042AB8D17A077F023F0BDB0813439946CB
:102AF000012253461A40002368E54145BBD893465E
:102B0000002767E6019C9C42C3D391466DE70023F2
:102B1000DAE780275B463F031F433F033F0B019AE1
:102B2000034B53E5FF030000FFFFFFFEFE0700001D
:102B3000FF07000002FCFFFF1E040000E2FBFFFF96
:102B40003E040000F0B55F464D4644465646F0B49C
:102B50001F035C00DB0F99461B4B0E034D00C90F92
:102B60008446360B6D0D8B4690463F0B640D9D429F
:102B70000CD0154B9C4210D00123A54214D0181C38
:102B80003CBC90469946A246AB46F0BD311C0123A1
:102B90000143F4D10C4B9C42EED13A430123002A6D
:102BA000EDD10123A542EAD1BE42E8D1C445E6D128
:102BB000CB4506D0002DE2D13043031C581E834183
:102BC000DDE70023DBE7C046FF070000F0B557460E
:102BD00045464E46E0B40F034E00C90F8A463249BF
:102BE0001D035C0084463F0B760D90462D0B640D53
:102BF000DB0F8E420FD08C4239D0002E10D13843DB
:102C0000414241418946002C27D12A4325D1002049
:102C100000290ED108E0391C01432ED1B44226D040
:102C2000002C0BD09A450DD053465942012319432D
:102C3000081C1CBC90469946A246F0BD2A43F3D01E
:102C40009A45F1D1A642EFDC1ADA5046414248419A
:102C5000012341421943081CEBE74A46002AE1D010
:102C600058425841012241421143081CE1E7291C06
:102C7000114302D1002EC2D0D4E702204042D8E74F
:102C8000AF42D1D809D00020AF42D2D25046414203
:102C90004841012340421843CBE7C445C4D8002033
:102CA000C445F3D3C5E7C046FF070000F0B55F4653
:102CB0004D46444656468046F0B4061C0803000BB9
:102CC00084462C484C001F035D00C90F640D8B46E1
:102CD00091463F0B6D0DDB0F844212D0854225D00B
:102CE000002C14D161460E4370424641002D35D070
:102CF000002E21D058425841012143420B43181C59
:102D00000EE06146022031430AD1A5420ED0002DCB
:102D100012D13A4310D15B46594201231943081C92
:102D20003CBC90469946A246AB46F0BD391C0220F9
:102D30001143F5D1002CD5D09B45ECD1AC42EADC57
:102D400005DBBC45E7D80FD00020BC45E8D258468B
:102D500041424841414201200843E1E73A43C7D19B
:102D60000020002EDCD1D6E7C845D4D80020C845C5
:102D7000EDD3D5E7FF070000F0B55F4656464D4658
:102D80004446F0B4051C061C080387B099464F0062
:102D9000030BCC0F92469B467F0D019467D06C4B82
:102DA0009F4236D080205B4640031843C0006B0F23
:102DB0001843684B83469C4600239846EE006744C0
:102DC00000934B4649461D03C90F5B0052462D0B2D
:102DD0005B0D894600D16EE05D498B4264D0802056
:102DE0005C4940038C4600210543ED00500F05432C
:102DF000D20063444846FF187B1C9A46009B604003
:102E000002900B430F2B00D9ACE053489B00C358F2
:102E10009F465B461D4300D082E0082300930023B9
:102E20009B46023300269846CBE7029B019343461C
:102E3000022B59D1012400250026019B1C40444B44
:102E400000212D030A0D12052D0B1543434A1B05C6
:102E500015401D436D00E4076D082543301C291CF7
:102E600007B03CBC90469946A246AB46F0BD2B430A
:102E70004ED05B46002B00D185E1584601F07EFD27
:102E8000021C2823291C9B1A161C5846D940083EB0
:102E9000B0400B1CB54003439B462E1C0023304F13
:102EA0000093BF1A98468CE7514629432ED100253E
:102EB000002202219EE75146294323D0002D00D154
:102EC00054E1281C01F05AFD031C28215046C91A60
:102ED0001A1CC8405146083A914095400A1C0543C7
:102EE0001F480021C31A85E7032B00D1C2E1012B43
:102EF00000D06DE14446019B00251C40E4B2002354
:102F000000269DE700250022012173E7032171E7D8
:102F10000423009300239B4601330026984650E784
:102F20000C230093093B98464BE7802500242D0392
:102F30000026074B84E74B46AB46161C0193884698
:102F400075E7029BAB46161C019388466FE7C046A7
:102F5000FF07000001FCFFFFD04B0008FFFF0F80C0
:102F60000DFCFFFF330C3604360C9C46331C140C4E
:102F70001204120C534398466346534399466346E2
:102F800063430193331C41466343090C4B445B1874
:102F9000994505D980204002814601994944019113
:102FA000190C039141460904090C1B045B18049396
:102FB0002B0C9846331C2D04290C4B436046009380
:102FC0004346654658435E43009B4D431B0C994660
:102FD000AE194E448446B54203D980235B0299461C
:102FE000CC44350C2B1C0398634484460593009B0A
:102FF00036041B041B0CF3189C446046039058468F
:103000000504060C280C84465043351C8146604656
:10301000654344434846000C8346724314195C449C
:10302000A24203D98022520293465D44220CAD187D
:103030004A461204120C24044046A41862464A432D
:103040007143464360460096464670438046100CE6
:1030500084468844E044414505D9802149028C4694
:103060000099614400910198039984466144994212
:103070009B415B4299460598434684461204120CD4
:103080001B049B1863449C46AB4683429B414046CD
:103090000A19CC44A2428941E344CC45B6415C467E
:1030A000000C8046494276425B42641833439844A0
:1030B0008C428941AB459B4149425B4219430D1CFF
:1030C000009B4544EE187602E50D2E43B346049B63
:1030D00056021E43731E9E415B46D20D324366026A
:1030E0001643DB010AD50123334076081E435B46B5
:1030F000DB071E435B465B089B465746634BFB184A
:10310000002B5ADD720709D00F223240042A05D065
:10311000321DB242B6417642B344161C5A46D20121
:1031200006D55A465A4B1A4080239346DB00FB18BB
:10313000584A934234DD0124029B00251C4000269E
:10314000554B7DE680205B460003034208D00542D4
:1031500006D105432D032D0B4C46161C4E4B6FE636
:103160005D4605432D032D0B4B4B69E6504601F0A0
:1031700005FC031C2033272B00DCA6E65546083847
:1031800085400022ACE6281C01F0F8FB021C20322E
:10319000272A00DC75E6083885400026AB467DE628
:1031A0005A46F608520716435A4601245502029A17
:1031B0005B052D0B5B0D144042E6384DED1B382DA1
:1031C0000ADD0124029B00251C400026002337E66F
:1031D000019B5746029391E71F2D25DC304B321C93
:1031E0009C466744BE405B46BB40371CEA407E1E9F
:1031F000B74113433B431E1C5B46EB401D1C73074A
:1032000009D00F233340042B05D0331DB342B64100
:103210007642AD191E1C2B0220D50124029B0025ED
:103220001C40002601230BE65A461E4BDB1BDA40EE
:10323000131C202D1CD01C4A94465A466744BA40A1
:10324000171C3E43721E96411E4307230025334040
:1032500007D00F2300253340042BD6D16B076D0216
:103260002D0B0124F6081E43029B1C400023E7E5BA
:103270000027E6E780255B4601242D031D43019BC3
:103280002D0323401C1C2D0B034BD9E5FF0300002D
:10329000FFFFFFFEFE070000FF07000002FCFFFF2C
:1032A0001E040000E2FBFFFF3E040000F0B54D46A7
:1032B00044465F465646F0B40E1C111C3203520AB7
:1032C000470F1743C5001A035800DB0F9946520AEF
:1032D0004B0F83B01A43CB000193CF4B7400F60F12
:1032E000640DB046400D984200D1E8E00123494604
:1032F00059400B1C9E4200D1B1E0261A002E00DC82
:103300001CE1002842D1131C01990B4300D0E6E0D8
:103310006B0700D18EE00F232B40042B00D189E0F6
:103320002A1DAA42AD418023012641466D427F19E4
:103330001B043B400E40151C002B00D183E0B64B14
:1033400001349C4200D116E13A1CB44BED081A40FE
:103350005007640552020543120B640D002112034D
:103360000B0D1B056405120B1A436308AC4CF607E2
:1033700014401C43640064083443281C211C03B01F
:103380003CBC90469946A246AB46F0BDA24B9C423F
:10339000BED080231B041A43382E00DD03E11F2E0C
:1033A00000DD3FE12020831B9946131C49468B40DA
:1033B0009C46019B6046F34003430198F2408840DD
:1033C000011C481E81410B43EB1A9D4280411D1C8C
:1033D000BA1A4042171A3B0200D4A8E07A02560AF1
:1033E000002E00D1CAE0301C01F0C8FA031C083BD3
:1033F0001F2B00DDCBE02822291C121AD1409E4051
:103400000A1C9D4032439C4200DDC8E01C1B671C27
:103410001F2F00DDEDE01F23291C1C1B131CA540E2
:10342000A340F9406C1EA541FA4019430D43171CF7
:1034300000246DE78023012642461B043B401640D2
:10344000002B00D07BE7744BED0878070543FA08A2
:103450009C423BD012036405120B640D7EE7231AD5
:103460009A46002B00DCA5E0002844D06A4884423C
:1034700000D14DE78020000402435346382B00DC86
:103480001CE1019B1A43511E8A41D1B20022491905
:10349000A94280410D1CD219404217183B0246D563
:1034A0005D4B01349C4200D169E101205B4A6B080D
:1034B0003A4028401843D5070543570828E7131C0E
:1034C00001990B4300D111E74B4613E72B1C134323
:1034D00051D080231B031A431203120B3EE7013E17
:1034E000002E00D080E0691A8D429B41BA1A5B42DF
:1034F000D71A0D1C6FE7101C019B184300D107E77A
:1035000001235B429C46E2445346002B00D002E17B
:10351000019BD2195919A9429B415B42D7180D1C36
:10352000BCE76346034300D128E1071C65466B07EF
:1035300000D0F0E6012643461E4084E7002E00D06E
:1035400081E0601C4005400D012800DC07E1019985
:10355000681A84466545B641B81A7642861B300221
:1035600000D4A1E08C464D1BAC458941D21B494299
:10357000561A984634E700220025EFE6281C01F091
:10358000FDF92030031C083B1F2B00DC33E7021C35
:10359000283A95402A1C00259C4200DC36E71F4F44
:1035A000E41A1740B4E6019B1A43511E8A41D3B274
:1035B000002209E7002B00D001E1601C43055B0DF0
:1035C000012B00DCB0E0144B984200D11EE1019BBE
:1035D000D2195919A9429B415B42D2184908D50713
:1035E0000D435708041C93E60B4B9C4200D0D3E6D6
:1035F0008EE6211C131C1F39CB40191C202F00D133
:103600008EE03F231C1BA24015436A1E95410027F4
:103610000D4300248BE7C046FF070000FFFF7FFF3C
:10362000FFFF0F80331C101C203BD840202E79D088
:1036300040239B1B9A40131C019A1343591E8B4134
:1036400000220343C0E6002C53D0C74CA04200D157
:10365000B0E0802471428946240427434946382932
:1036600000DDCDE01F2900DD59E120243E1C611A58
:103670008E408A46B04649462E1CCE405146B4463E
:103680008D4064464646494626436C1EA541CF40C0
:1036900035430199D71B8C464D1BAC459241524294
:1036A000BF1A041C984696E663466546334300D02D
:1036B00096E60026002700240025C4E61F2B61DCC7
:1036C0002020C31A9B46131C59468B4051469946ED
:1036D000019BCB409C464B46604603439C465B4661
:1036E000019999406346481E814119435346DA4087
:1036F000CDE63C1C2C435DD0F1438946002955D1D1
:103700000199D21B8C464D1BAC4589414942571A41
:10371000041C98465FE69448844200D0ADE6F7E585
:10372000002271E7002387E73B1C2B43002C00D0CD
:10373000DAE0002B00D113E1131C01990B4300D1F7
:10374000E6E54919A9429B41D2195B42D7183B02D1
:1037500000D421E1854B0D1C1F40041CD8E5381C0A
:103760002843002C40D1002800D083E0101C019990
:10377000084303D0171C0D1C9846C9E500260027F6
:10378000002560E65046131C2038C340181C5346E1
:10379000202B00D1C1E0402351465B1A9A40019989
:1037A00011434A1E91410022014370E66E4CA04233
:1037B00000D053E7171C019D041C9846A8E5002C77
:1037C00028D13C1C2C4300D18AE0DB439A46002BD5
:1037D00000D082E0019BD2199C4665449D428941FC
:1037E00049425718041C59E600285BD1101C019966
:1037F000084300D1A4E0171C0D1C98465A4C87E5DD
:103800003D436F1EBD410027EDB242E7041C002777
:10381000002518E6544CA04262D0534680245B42F7
:103820009A46240427435346382B00DD8EE01F2B95
:1038300000DD9DE02024E31A9B463B1C59468B404B
:10384000514699462B1CCB409C464B46644623432D
:103850009C465B469D4063466C1EA541CF401D4380
:10386000019BBF189C4665449D4292415242BF183D
:10387000041C13E6101C0199084300D148E5681A9E
:10388000844685428041BE1A4042301A060200D466
:1038900047E68C464D1BAC458941D21B4942571A1D
:1038A000984635E5101C0199084334D080247807E8
:1038B000ED08FF0824032843274208D0D6082642F3
:1038C00005D1C90852070A43101C371C9846FF004F
:1038D000420F1743C500244C1AE5234CA042A2D145
:1038E000171C019D041C13E5002B35D0131C0199F6
:1038F0000B4310D080247807ED08FF0824032843E9
:103900002742E4D0D3082342E1D1C90852070A4331
:10391000101C1F1CDBE7144CFAE400223FE74C4666
:103920003E1C203CE6404946341C202932D040262B
:10393000761AB7403D436F1EBD4100272543A8E6D8
:1039400080270026FF03084C00257CE53D436F1EC1
:10395000BD410027EDB283E7171C019D024CD7E45F
:10396000171C019DD4E4C046FF070000FFFF7FFF46
:1039700054463B1C203CE3401C1C5346202B0DD0DE
:10398000402351465B1A9F403D436F1EBD410027B7
:10399000254365E70027CDE70D1CC8E50027F3E7C1
:1039A00038B5041E16D0C50F00D04442201C00F0CC
:1039B000E5FF174B1B1A0A2821DC021C211C1532BB
:1039C00091400A1C0B21081AC4405B052403240BF8
:1039D0005B0D03E000250023002400220021101CC1
:1039E00024030A0D1205240B14430A4A1B05144034
:1039F0001C436400ED0764082C43211C38BD0B38C0
:103A000084405B052403240B5B0D0022E6E7C046DF
:103A10001E040000FFFF0F8003685A0003D45B0000
:103A20005B08C0187047802212061343F9E7C046AE
:103A3000F0B55F4656464D464446F0B483B0002983
:103A40002FD04B1E924681469B46002701935B4632
:103A5000FB18DC0FE4184B466410E5005E19301CBF
:103A6000FFF7DAFF019B8046A34210D00835281CDF
:103A70004844FFF7D1FFD04504D9BC4211D0631EA2
:103A80009B46E4E70138504503D2671CDFE7504509
:103A9000F3D8301C03B03CBC90469946A246AB46D6
:103AA000F0BD0026F5E7C046012809D0022805D060
:103AB000002801D0002070470248FCE70248FAE7DE
:103AC0000248F8E7D1410008E9410008DD4100085B
:103AD00030B5234B83B0051C8C1E002B2AD0201C34
:103AE00001A900E000BF002820D00199221CFFF7A7
:103AF0009FFF041E1AD0FFF78FFF6368A864012B95
:103B000010D0201D002B1BDBFFF786FF0023E8648D
:103B10002B650368002B17DBFFF77EFF2861002071
:103B200003B030BD002305202B61F9E700230920F5
:103B30002B61F5E70B480C49091AC9100191D5E72B
:103B40000123E8642B65E4E71801000FFFF7ACFFE1
:103B5000031C5A425341286109205B421840DFE7A9
:103B600000000000B44C0008DC4D0008036810B5EC
:103B7000041CDA0705D49B070FD5483000F09EFCE3
:103B800023685A070FD51A0714D5DB0604D4201C66
:103B9000D130FF3000F09EFC10BD483000F08AFCB0
:103BA00023685A07EFD4201CD03000F08BFC236828
:103BB0001A07EAD4201C5130FF3000F087FC23683C
:103BC000E3E7C04602680023002A00D01318181C3F
:103BD0007047C046092070477047C04638B5041C7E
:103BE0000D1C08E02B6C01206361211C2A1C236939
:103BF0009847082807D1201C296CFFF769FF002887
:103C0000F0D0FDF785FD0728FBD10020296CFFF7D8
:103C1000E3FF281D00F038FCF0B54F464646C0B41F
:103C2000C368324C9946A5448369171C051C0431AE
:103C3000402205A8984600F0C5FE002304AC216C84
:103C4000281C0493FFF744FF794279410A23061C9C
:103C50005F1A002E15D0A36B1021636443463943CD
:103C60000193C9B2009401202A1C2B1CC8470028CC
:103C700033D1301CF5239B009D440CBC90469946E3
:103C8000F0BDF022236C211C6B6152007CA800F077
:103C900099FE291C7CAA2B69381C98478A9B061C14
:103CA000636403934346009401930120391C2A1C4A
:103CB0002B1CC847002810D1F022201C7CA95200E0
:103CC00000F080FE082E06D1281C216CFFF700FFB3
:103CD0000927061CBDE7072E01D00920CAE70020EE
:103CE000216CFFF779FF05A800F0CEFB2CFCFFFF4D
:103CF000406C704770B5CB6BFAB00B64041C0E1CA3
:103D000003A80431402200F05DFE01235B420293D0
:103D100006E0211C02AA23699847051E082D0AD136
:103D2000129B201C191C0193FFF7D2FE0028F0D033
:103D300009207AB070BD02A8FFF718FF062DF7D151
:103D4000201C311CFFF74AFF08B58261DA6BC160A5
:103D50001A64191C0022FFF75FFF08BD38B54369DC
:103D6000041C0B64C3680D1C002B04D00122FFF758
:103D700053FFFDF7CDFC0220211C2A1C2369984724
:103D8000072807D0082803D1201C291CFFF726FF8D
:103D9000FDF7BEFC0020296CFFF71EFF281D00F078
:103DA00073FBC04608B5C368002B05D0CB6B00225F
:103DB0000B64FFF731FF08BDFFF79CFFFBE7C04630
:103DC0007047C04608B58368002B02D0011C012053
:103DD000984708BD10B5012907D0002907D003393D
:103DE0000224012901D9201C10BD0124FBE7022473
:103DF000002BF8D10F2AF6D8920080184268029B57
:103E000000241A60EFE7C04600B585B003AB0A1C7A
:103E1000009300210023FFF7DDFF039805B000BDEC
:103E200010B5012907D0002907D003390224012940
:103E300001D9201C10BD0124FBE70224002BF8D17E
:103E40000F2AF6D8029B92001B688018436000245A
:103E5000EFE7C0460B1C00B585B0039203AA0092A1
:103E600000211A1C0023FFF7DBFF05B000BDC04690
:103E700070B51A4CD36BA5441364061C0D1C19A80D
:103E8000111D402200F09EFD01235B42189314E0B7
:103E900018A80C2102AAFFF7DDFF18A8291CB047BB
:103EA000002812D1069B083002A918AA019398474E
:103EB000041E052C0AD0092807D0289B02A8191C2B
:103EC0000193FFF705FE0028E2D0092418A8FFF7A8
:103ED0004DFE201C90239B009D4470BDC0FDFFFF44
:103EE000F0B55F4656464D46444693460322F0B42D
:103EF0001E1C131C8BB003400193CB6C0D1C1C1DAE
:103F00001B6808940793002E66D11B02079306AB2B
:103F10005E731A73019B022B00D16EE02B6DDB07E1
:103F200047D40023A846B2460293083303400393C4
:103F30002668002E00D126E15346022B49D0268860
:103F40006588043401232F1C99469F4343469B6C8C
:103F50000F219C4658466744FFF756FF00218742D1
:103F600006D8311C4B46994379188842804141421A
:103F700001222B1C13405B0032401343012B3ED027
:103F8000002B5AD0022B1CD12368019A5F007F08B6
:103F9000002A65D1002906D0039A002A00D188E0C2
:103FA000002F00D1AAE0002B65DB0137BF00E41928
:103FB000BEE700230293022E47DDFFF70BFE002829
:103FC00049D009200BB03CBC90469946A246AB466E
:103FD000F0BD65680834B5E7022E9BDC1A0C1B04A3
:103FE0000793022306A90B73FD334A731A40019B02
:103FF0009200A418022B00D090E7AC6B8EE7019BD7
:10400000002B3AD1002916D02368DD0F63689A1C73
:10401000D7D0424658320692013300D1B5E0201D78
:10402000FFF7D0FD06AB011C2A1C404600E000BF94
:10403000002800D0BAE008347AE7019B002B02D0B8
:10404000002900D08BE0043472E7584607A900F03D
:10405000E7FA0028B5D1029B002B5DD10820B1E71B
:10406000434658460D211D6AFFF7CEFE854263D0B8
:104070002368002B99DA043497E7434658460D210C
:104080001D6AFFF7C1FE8542D5D143469B6A9C421B
:10409000D1D14546201CFFF7BFFC0F21021C58461A
:1040A000FFF7D8FE584600212A1CFFF7D3FE072051
:1040B00088E7002F22D058235146434406AABA4627
:1040C000251D0026049405911F1C914603E004352C
:1040D000261E564514D0281C0697FFF773FD0022B4
:1040E000011C4B464046741C00E000BF0028EED087
:1040F0005746059B049C9A46BE42B9D1454601E00D
:104100004546049C58460D21FFF77EFE069B28621B
:104110006B62AC62062055E70F215846FFF774FE2C
:104120000E21021C5846FFF795FE58460F21274ADC
:10413000FFF790FE072045E743469B6A9C4297D1D4
:10414000434642469F620023D36204331363231D18
:1041500053632368002B23DB0123029325E7201CF4
:10416000FFF75AFC45460434061CAC63404600E0A9
:1041700000BF002800D124E758460F21321CFFF76A
:1041800069FE07201EE7564615E758460D214546AD
:10419000FFF73AFE2862069B6B62AC62062011E7CD
:1041A000381C013080004546201874E7071C0D219B
:1041B00058464546FFF728FE2862022FEBD1069BA2
:1041C000EB6243462C336B62E7E7C0460000000019
:1041D00008B50023FFF784FE08BDC04608B50123DB
:1041E000FFF77EFE08BDC04608B50223FFF778FE44
:1041F00008BDC046F0B5474680B4061CC2B0141CCA
:104200001D1C012950D0002935D0032909D00429CB
:1042100002D1002B00D18EE0022042B004BC9046B7
:10422000F0BD032BF8D11404150C240C6319102BCA
:10423000F2D8082203681A4200D005E120AF381CEA
:1042400000F046F9B36BED0064009C461A1C791926
:10425000631E002C09D00A1C6546501A405901C241
:10426000013BF9D2A400221C6244B263381C00F066
:104270002DF90020D1E70220002BCED10023012709
:104280001004B56B000C321D391C9940084202D055
:1042900029680435116001330432102BF4D1002059
:1042A000A304BAD4B563B8E71404170C240C012B8B
:1042B00060D0052BB0D1E319202BADD80F2F69D9D1
:1042C000A046002C00D080E00023B16B9846002C63
:1042D00022D063009C465A1E20A8FB00C418231C51
:1042E000181B085801C3013AFAD263469C004346A2
:1042F0000919002B10D0434658003B1E102B00D24A
:104300001023103BDA0000236A448000CC58D450BC
:1043100004338342FAD1C918012D00D189E0B16379
:104320000F2F00D88CE04346002BA2D0684600F047
:10433000C9F8002071E7102A00D96DE71022036840
:104340001A4261D120AF381C00F0C6F800230120CA
:10435000B16B021C9A40144203D00D689A00BD5004
:1043600004310133042BF4D1381CB16300F0B2F8EE
:10437000002052E7E319102B00D94DE70F2F00D989
:104380004AE700233268984615420DD120A800F074
:1043900093F899E7102B3ED9102252429046984448
:1043A00033681A1C0B4211D00123111C99430B1CBA
:1043B0003160052D4FD00323301C9A4332604830C2
:1043C00000F07AF84346002B17D033685A074FD4D1
:1043D000012D55D00F2F02D820A800F071F84346C8
:1043E000002B00D170E7684600F06EF81024B16B26
:1043F000E41B002C00DD6CE77DE7012DC6D0002317
:1044000098460F2FE8D95FE793430360D130FF3020
:1044100000F062F896E732681142F0D00223301CB7
:104420008A431A433260483000F04AF80023984625
:10443000D2E7043120A8B16300F03CF80020ECE69C
:1044400020A800F03BF86EE7934303605130FF3043
:1044500000F03EF8F2E60222301C1343336048308D
:1044600000F02EF84346002BB6D033685A07B1D57A
:104470000422301C93433360D03000F025F8A7E7C6
:1044800020A800F019F8B1E7011C343138C9043B09
:104490009C461D60A646011C20313CC990469946A9
:1044A000A246AB46011C0831FCC941680068E546DC
:1044B00000BDC0467047C0467047C0467047C04602
:1044C0007047C0467047C0467047C0467047C046F8
:1044D0007047C0467047C0467047C04601B401A847
:1044E00001B585B0FFB408A841464A4653465C462C
:1044F00065463EC001A83EC80F98009000230CB44A
:1045000001A9FFF7F7FB109B12B0184701B401A8EF
:1045100001B585B0FFB408A841464A4653465C46FB
:1045200065463EC001A83EC80F98009000230CB419
:1045300001A9FFF713FC109B12B0184701B401A8A2
:1045400001B585B0FFB408A841464A4653465C46CB
:1045500065463EC001A83EC80F98009000230CB4E9
:1045600001A9FFF71FFC109B12B0184701B401A866
:1045700001B585B0FFB408A841464A4653465C469B
:1045800065463EC001A83EC80F98009000230CB4B9
:1045900001ABFFF7D9FB109B12B0184701B401A87B
:1045A00001B585B0FFB408A841464A4653465C466B
:1045B00065463EC001A83EC80F98009000230CB489
:1045C00001AAFFF755FC109B12B01847027A031C92
:1045D000002A04D1427AB020002A07D17047013A5C
:1045E0000272006802021A60000EF7E7013A5A727E
:1045F0005A68111D1068032259601A72F2E7C0460A
:1046000000B585B003AB009300210C220023FFF717
:10461000E1FB039805B000BD08B5FFF7F1FF08BD49
:10462000F0B556465F464D4644460023F0B487B089
:1046300003937F339846703B9946083B071C0E1C3A
:104640009A46301CFFF7C2FF041EB02C00D1C6E012
:10465000031C42469343DBB2002B2AD0031C4A467C
:104660009343DBB2802B00D180E0902B41D0A02B74
:104670004ED0B02B61D0C02B00D191E0031C52462C
:104680009343DBB2D02B0BD11440802201341203B0
:104690002243381C01210523FFF7ACFD0028D0D0B0
:1046A0000924201C07B03CBC90469946A246AB4664
:1046B000F0BDFF2583001D4005AB9B460093381CD1
:1046C000002300210D220435FFF784FB63060CD480
:1046D000059B9C46654405955B460093381C00216C
:1046E0000D220023FFF79CFBABE7059B5D1B0595A7
:1046F000F2E7833B03400D2BD2D04A4605AD024082
:104700000095381C00210023FFF764FB0095E5E7C6
:10471000FF2352461B01191C824311410A1C1A40F7
:10472000030702D58023DB011A43381C0021002334
:10473000FFF760FD0028B3D183E7B12863D0B2282A
:1047400076D0B32800D1A2E0FC230340B42BA7D03D
:10475000534680221C40013412032243381C01219D
:104760000123FFF747FD00289AD16AE70402301CB5
:10477000FFF72CFF802520432D02A84290D0040192
:104780000005020C0021381C0023FFF733FD002830
:1047900000D085E72C4200D153E70123039350E773
:1047A000C62800D17FE0C72800D190E0031C524604
:1047B0009343DBB2C02B00D19EE0C82800D1A2E019
:1047C000C92800D06CE7301CFFF700FF4A464B4673
:1047D00002409843C0B201320003024359E7039BF1
:1047E0000024002B00D05CE705AD0095381C0021AB
:1047F0000E22FFF7EFFA0095381C00210F2200234C
:10480000FFF70EFB4DE7301CFFF7E0FE021E00D164
:1048100046E7031C49468B43DBB2002B00D03FE741
:10482000381C0021FFF7E6FC002800D038E708E735
:1048300005AB0D22009300219B46381C0023FFF797
:10484000C9FA301CFFF7C2FE4246031C9343DBB299
:10485000002B65D0B03C43461840059BA0409C46C9
:1048600060440590301CFFF7B1FE4246031C9343A1
:10487000DBB20734002BEED18122920094464246EF
:104880001040A040059B63441C18059424E7301C8D
:10489000FFF79CFE4A464B4602409843C0B20132A5
:1048A000000302435AE7301CFFF790FE4A464B468E
:1048B00002409843C0B2013200030243381C032176
:1048C0000323FFF797FC002800D0E9E6B9E6301C87
:1048D000FFF77CFE021E00D1E2E6031C49468B4333
:1048E000DBB2002B00D0DBE6381C0421FFF782FC92
:1048F000002800D0D4E6A4E64B46A0221C40013498
:1049000012032243DAE7301CFFF760FE4B46021C1D
:104910009A43D2B210321840120301300243B8E673
:104920000224A9E7C26C10B5506884B00402101CC0
:1049300008300290032001AB1872D279081C191CB0
:1049400001945A72FFF76CFE04B010BD08B5FFF772
:1049500063FE806C08BDC04608B5FFF75DFEC36C02
:10496000D87980000830181808BDC04608B5FCF793
:10497000CFFEC04608B5FCF7CBFEC0461C21012384
:104980001B04984201D3000C10391B0A984201D332
:10499000000A08391B09984201D30009043902A210
:1049A000105C40187047C046040302020101010177
:1049B0000000000000000000014B18687047C0466E
:1049C0005004002070B50F2A32D9041C0C430B1C74
:1049D000A40731D1151C041C103D2D0901352D01F2
:1049E00049191E6826605E6866609E68A660DE687B
:1049F0001033E66010349942F3D10F234519134068
:104A0000032B1BD91C1F0023A4080134A400CE587B
:104A1000EE500433A342FAD1ED18C91803231A400B
:104A200005D00023CC5CEC5401339342FAD170BD25
:104A3000051C002AF5D1FAE7051CF2E71A1CF8E775
:104A400008B5034B002B02D0024800F005F808BD62
:104A500000000000694A000808B5011C002200207F
:104A6000002300F01BF808BD38B5094B094CE41AC7
:104A7000A41009D0084AA518AD00ED182B68013C18
:104A80009847043D002CF9D100F078F838BDC046B5
:104A90005C04002060040020FFFFFF3FF8B544469F
:104AA0005F4656464D469B462F4BF0B41C68A423E8
:104AB0005B00051CE0580E1C904600284BD0436854
:104AC0001F2B0DDC5C1C002D21D102339B004460A8
:104AD0001E5000203CBC90469946A246AB46F8BD0D
:104AE000224B002B3CD0C820400000E000BF002833
:104AF00036D0A42200235200A15843600160A05088
:104B000040328350043283500124002DDDD09A00BE
:104B100091468144424688214F467A50C422520031
:104B20009046804442468739994012688A460A4333
:104B30009446424661461160842249465F465200CF
:104B40008F50022DC1D1021C55468D32FF321168A3
:104B50000D431560B9E7201C4D30FF30E050AEE743
:104B600001204042B6E7C046144C00080000000097
:104B7000F8B5C046F8BC08BC9E467047F8B5C046BC
:104B8000F8BC08BC9E467047737172740000000048
:104B9000D0260008BE250008A4260008AA25000883
:104BA000A4260008AE260008A4260008AA250008AE
:104BB000BE250008BE250008AE260008AA2500086C
:104BC000B4250008B4250008B425000816290008FB
:104BD000642F0008422F0008422F0008362F0008DB
:104BE0002A2E00082A2E00082A2F0008362F000837
:104BF0002A2E00082A2F00082A2E0008362F000827
:104C00002E2E00082E2E00082E2E000844310008FB
:084C1000430000002800002011
:104C180074B20181B0AB30800000000008B101819E
:104C2800B0B000840000000008B10181B0B0008479
:104C38000000000008B10181B0B00084000000004D
:104C4800800A0181B0B0ABF00000000008B101811A
:104C5800B0B000840000000008B10181B0B0008449
:104C68000000000008B10181B0B00084000000001D
:104C78003F010181B0AB10800000000008B1018144
:104C8800B0B000840000000080060181B0B0ABF035
:104C98000000000008B10181B0B0008400000000ED
:0C4CA80008B10181B0B0008400000000E1
:104CB400A0B4FF7F01000000ECC4FF7FB0AA09800C
:104CC40060C5FF7FAA0FB1800CC6FF7FB0AB1A800E
:104CD400E0C6FF7F010000009CCAFF7FB0B0AA803D
:104CE400F4CAFF7FA908B1801CCBFF7FA907B1805C
:104CF400A4CBFF7FA908B1808CCCFF7F010000000A
:104D0400CCEDFF7FB0A9028060EEFF7FB0B0A88039
:104D1400B0EEFF7F01000000C0EEFF7FA908B18064
:104D2400F4EEFF7FF0FEFF7FC4EFFF7F0100000081
:104D3400C0EFFF7FAA3F39800CF0FF7FE4FEFF7FC6
:104D440018F0FF7FA908B18058F0FF7FE0FEFF7FD5
:104D54006CF0FF7F0100000068F0FF7FDCFEFF7F46
:104D640070F0FF7F0100000004F1FF7FAA0FB28002
:104D74006CF1FF7FD0FEFF7F54F4FF7FD4FEFF7FF2
:104D840058F4FF7FD8FEFF7F5CF4FF7FDCFEFF7FDB
:104D940060F4FF7FE0FEFF7FECF6FF7F0100000080
:104DA4005CF8FF7F008404806CF8FF7FD4FEFF7FF3
:104DB4006CF8FF7FD8FEFF7F68FBFF7FB0A80380FD
:104DC40088FBFF7FD4FEFF7F8CFBFF7FD8FEFF7F35
:084DD40098FBFF7F01000000C5
:104DDC00000000000000F03F000000000000F03F69
:104DEC00000000000000000001020304060708098F
:104DFC00006CDC0201000000000000001403002025
:104E0C007C030020E40300200000000000000000F0
:104E1C000000000000000000000000000000000086
:104E2C00000000000000000000000000104C000812
:104E3C000000000000000000000000000000000066
:104E4C000000000000000000000000000000000056
:104E5C000000000000000000000000000000000046
:104E6C000000000000000000000000000000000036
:104E7C000000000000000000000000000000000026
:104E8C000000000000000000000000000000000016
:104E9C000000000000000000000000000000000006
:104EAC0001000000000000000E33CDAB34126DE6A3
:104EBC00ECDE05000B00000000000000000000000C
:104ECC0000000000000000000000000000000000D6
:104EDC0000000000000000000000000000000000C6
:104EEC0000000000000000000000000000000000B6
:104EFC0000000000000000000000000000000000A6
:10522C0028000020414A0008ED000008C5000008D5
:04523C00000000006E
:0400000508000000EF
:00000001FF
