:020000040800F2
:1000000000200020CD000008190100081901000897
:1000100000000000000000000000000000000000E0
:1000200000000000000000000000000019010008AE
:10003000000000000000000019010008190100087C
:100040001901000819010008190100081901000828
:100050001901000819010008190100081901000818
:100060001901000819010008190100081901000808
:1000700019010008190100081901000819010008F8
:10008000190100081901000800000000190100080A
:1000900019010008190100081901000819010008D8
:1000A00019010008190100081901000819010008C8
:1000B00019010008000000001901000800000000FC
:1000C0005FF808F180B500AFFEE7C0460C488546F2
:1000D000002103E00B4B5B58435004310A480B4BA3
:1000E00042189A42F6D30A4A02E00023136004320F
:1000F000084B9A42F9D300F011F8FFF7E3FFFEE74F
:1001000000200020900200080000002000000020D5
:100110000000002000000020FEE7000080B500AFD6
:100120001B4B1B4A126801210A431A60184B184ADC
:10013000526818490A405A60154B154A1268164908
:100140000A401A60124B124A126814490A401A6097
:100150000F4B0F4A526812490A405A600C4B0C4A26
:10016000D26A0F218A43DA62094B094A126B0D49A0
:100170000A401A63064B064A526B01218A435A63AE
:10018000034B00229A6000F00FF8BD4680BDC046C8
:10019000001002400CB8FFF8FFFFF6FEFFFFFBFF68
:1001A000FFFFC0FFACFEFFFF80B582B000AF0023B1
:1001B0007B6000233B60314B304A1268802149024A
:1001C0000A431A602D4B1A6880239B0213403B6040
:1001D0007B6801337B603B68002B04D17A68A023E5
:1001E000DB019A42EED1254B1A6880239B02134013
:1001F00002D001233B6001E000233B603B68012B00
:1002000038D11F4B11221A601C4B1C4A52685A608D
:100210001A4B1A4A52685A60184B184A52681949C0
:100220000A405A60154B154A5268882149030A430F
:100230005A60124B114A1268802149040A431A601D
:10024000C0460E4B1A6880239B041340F9D00B4B19
:100250000A4A526803218A435A60084B074A526887
:1002600002210A435A60C046044B5B680C221340CB
:10027000082BF9D1BD4602B080BDC0460010024037
:0802800000200240FFFFC0FF57
:080288003CFEFF7F01000000B5
:0400000508000000EF
:00000001FF
